:020000040800F2
:1000000000060020E1010008E3010008E301000808
:10001000E3010008E3010008E3010008E301000830
:10002000E3010008E3010008E3010008452F000890
:10003000E3010008E3010008E3010008E301000810
:10004000E3010008E3010008E3010008E301000800
:10005000E3010008E3010008ED3100081532000853
:100060003D320008653200088D320008E3010008C7
:10007000E3010008E3010008E3010008E3010008D0
:10008000E3010008E3010008E3010008E3010008C0
:10009000E3010008E3010008E3010008B5320008AD
:1000A000E3010008E3010008E3010008E3010008A0
:1000B00089330008E3010008E3010008E3010008B8
:1000C000E3010008E3010008E3010008E301000880
:1000D000E3010008E3010008E3010008E301000870
:1000E00019330008E3010008E3010008E3010008F8
:1000F000E3010008E3010008E3010008E301000850
:10010000E3010008E3010008E3010008E30100083F
:10011000E3010008E3010008E3010008E30100082F
:10012000E3010008E3010008E3010008E30100081F
:10013000E3010008E3010008E3010008E30100080F
:10014000E3010008E3010008E3010008F9260008C4
:10015000E3010008E3010008E3010008E3010008EF
:10016000E3010008E3010008E3010008E3010008DF
:10017000E3010008E3010008E3010008E3010008CF
:10018000E3010008E3010008E3010008E3010008BF
:10019000E3010008E3010008E3010008E3010008AF
:1001A000E3010008E3010008E3010008E30100089F
:1001B000E3010008E3010008E3010008E30100088F
:1001C000E3010008E3010008E3010008E30100087F
:1001D000E3010008E3010008E3010008E30100086F
:1001E00002E000F000F8FEE772B6374880F30888B6
:1001F000364880F3098836483649086040F20000E6
:10020000CCF200004EF63471CEF200010860BFF36C
:100210004F8FBFF36F8F40F20000C0F2F0004EF638
:100220008851CEF200010860BFF34F8FBFF36F8F8C
:100230004FF00000E1EE100A4EF63C71CEF20001E4
:100240000860062080F31488BFF36F8F01F01CFF55
:1002500002F016FE4FF055301F491B4A91423CBF39
:1002600041F8040BFAE71D49184A91423CBF41F896
:10027000040BFAE71A491B4A1B4B9A423EBF51F83E
:10028000040B42F8040BF8E700201849184A914281
:100290003CBF41F8040BFAE701F0FAFE02F044FE1D
:1002A000144C154DAC4203DA54F8041B8847F9E7A7
:1002B00000F042F8114C124DAC4203DA54F8041B22
:1002C0008847F9E701F0E2BE000600200022002086
:1002D0000000000808ED00E00000002000060020FB
:1002E0004837000800220020402200204022002041
:1002F000602E0020E0010008E0010008E001000895
:10030000E00100082DE9F04F2DED108AC1F80CD066
:10031000C3689D46BDEC108ABDE8F08F002383F3CF
:1003200011882846A047002001F05EFAFEE701F0A0
:10033000EDF900DFFEE7000038B500F069FB01F0E1
:1003400073FE054601F096FE0446D8B90F4B9D4258
:100350001AD001339D4218BF044641F2883504BFCC
:1003600001240025002001F069FE0CB100F076F8B0
:1003700000F0ECFC00F0B2FB284600F0BFF800F003
:100380006DF8F9E70025EDE70546EBE7010007B05A
:1003900008B500F075FBA0F120035842584108BD94
:1003A00007B541F21203022101A8ADF8043000F0B4
:1003B00085FB03B05DF804FB38B5302383F3118867
:1003C000174803680BB101F0DBFA164A1448002302
:1003D0004FF47A7101F0CAFA002383F31188124CAA
:1003E000236813B12368013B2360636813B163681A
:1003F000013B63600D4D2B7833B963687BB90220F4
:1004000000F026FC322363602B78032B07D163684E
:100410002BB9022000F01CFC4FF47A73636038BDE6
:1004200040220020B9030008602300205822002049
:10043000084B187003280CD8DFE800F00805020804
:10044000022000F003BC022000F0FEBB024B0022A1
:100450005A6070475822002060230020234B244A12
:1004600010B51C46196801313FD004339342F9D1CD
:100470006268A24239D31F4B9B6803F1006303F506
:1004800040439A4231D2002000F042FB0220FFF7A5
:10049000CFFF194B1A6C00221A64196E1A66196E76
:1004A000596C5A64596E5A665A6E5A6942F0800203
:1004B0005A615A6922F080025A615A691A6942F0F7
:1004C00000521A611A6922F000521A611B6972B651
:1004D0004FF0E0233021C3F8084DD4E9003281F316
:1004E00011889D4683F30888104710BD00C000089E
:1004F00020C0000800220020003802402DE9F04F03
:1005000093B0AA4B00902022FF210AA89D6800F01A
:10051000C7FBA74A1378A3B9A6480121036011704D
:10052000302383F3118803680BB101F029FAA24A42
:10053000A04800234FF47A7101F018FA002383F3E6
:100540001188009B13B19D4B009A1A609C4A009C35
:100550001378032B1EBF00231370984A4FF0000A34
:1005600018BF5360D3465646D146012000F06EFBBB
:1005700024B1924B1B68002B00F01182002000F088
:100580007FFA0390039B002BF2DB012000F05CFB61
:10059000039B213B162BE8D801A252F823F000BFA1
:1005A000FD05000825060008B90600086B050008CF
:1005B0006B0500086B0500084307000813090008D5
:1005C0002D0800088F080008B7080008DD0800089B
:1005D0006B050008EF0800086B05000861090008BA
:1005E0009D0600086B050008A5090008090600081B
:1005F0009D0600086B0500088F0800080220FFF721
:10060000C7FE002840F0F581009B0221BAF1000FDF
:1006100008BF1C4605A841F21233ADF8143000F0B3
:100620004DFAA2E74FF47A7000F02AFA071EEBDBCE
:100630000220FFF7ADFE0028E6D0013F052F00F2B3
:10064000DA81DFE807F0030A0D101336052305935E
:10065000042105A800F032FA17E054480421F9E714
:1006600058480421F6E758480421F3E74FF01C08E6
:10067000404600F04FFA08F104080590042105A84F
:1006800000F01CFAB8F12C0FF2D1012000FA07F7A4
:1006900047EA0B0B5FFA8BFB4FF0000900F04CFBB5
:1006A00026B10BF00B030B2B08BF0024FFF778FEDD
:1006B0005BE746480421CDE7002EA5D00BF00B03E5
:1006C0000B2BA1D10220FFF763FE074600289BD029
:1006D000012000F01DFA0220FFF7AAFE00261FFAF3
:1006E00086F8404600F024FA044690B100214046C6
:1006F00000F02EFA01360028F1D1BA46044641F244
:100700001213022105A8ADF814303E4600F0D6F9C8
:100710002BE70120FFF78CFE2546244B9B68AB425C
:1007200007D9284600F0F6F9013040F0678104351A
:10073000F3E7234B00251D70204BBA465D603E4613
:10074000ACE7002E3FF460AF0BF00B030B2B7FF4F4
:100750005BAF0220FFF76CFE322000F091F9B0F1A0
:100760000008FFF651AF18F003077FF44DAF0F4AB2
:10077000926808EB050393423FF646AFB8F5807FD9
:100780003FF742AF124B0193B84523DD4FF47A7027
:1007900000F076F90390039A002AFFF635AF019B2B
:1007A000039A03F8012B0137EDE700BF0022002078
:1007B0005C23002040220020B903000860230020B1
:1007C0005822002004220020082200200C220020B1
:1007D0005C220020C820FFF7DBFD074600283FF41D
:1007E00013AF1F2D11D8C5F1200242450AAB25F0E9
:1007F000030028BF424683490192184400F02AFAB8
:10080000019A8048FF2100F04BFA4FEAA8037D4986
:100810000193C8F38702284600F04AFA06460028EA
:100820003FF46DAF019B05EB830537E70220FFF72F
:10083000AFFD00283FF4E8AE00F0B6F900283FF421
:10084000E3AE0027B846704B9B68BB4218D91F2FF8
:1008500011D80A9B01330ED027F0030312AA1344C8
:1008600053F8203C05934046042205A900F098FA6D
:1008700004378046E7E7384600F04CF90590F2E788
:10088000CDF81480042105A800F018F906E700232C
:10089000642104A8049300F007F900287FF4B4AEA3
:1008A0000220FFF775FD00283FF4AEAE049800F07B
:1008B00063F90590E6E70023642104A8049300F09F
:1008C000F3F800287FF4A0AE0220FFF761FD0028B6
:1008D0003FF49AAE049800F05FF9EAE70220FFF7D0
:1008E00057FD00283FF490AE00F06EF9E1E70220DA
:1008F000FFF74EFD00283FF487AE05A9142000F055
:1009000069F904210746049004A800F0D7F8394695
:10091000B9E7322000F0B4F8071EFFF675AEBB074A
:100920007FF472AE384A926807EB090393423FF6B0
:100930006BAE0220FFF72CFD00283FF465AE27F0D8
:1009400003074F44B9453FF4A9AE484600F0E2F82A
:100950000421059005A800F0B1F809F10409F1E7B8
:100960004FF47A70FFF714FD00283FF44DAE00F00D
:100970001BF9002844D00A9B01330BD008220AA996
:10098000002000F095F900283AD02022FF210AA883
:1009900000F086F9FFF704FD1C4800F02BFF13B0B0
:1009A000BDE8F08F002E3FF42FAE0BF00B030B2BA6
:1009B0007FF42AAE0023642105A8059300F074F8A3
:1009C000074600287FF420AE0220FFF7E1FC8046B6
:1009D00000283FF419AEFFF7E3FC41F2883000F045
:1009E00009FF059800F0DAF9464600F0A5F93C4603
:1009F000BBE5064652E64FF0000905E6BA467EE63C
:100A000037467CE65C22002000220020A086010000
:100A10007047000070B50F4B1B780133DBB2012B20
:100A20000C4611D80C4D29684FF47A730E6AA2FB5C
:100A30000332014622462846B047844204D1074B80
:100A400000221A70012070BD4FF4FA7000F0D2FE3F
:100A50000020F8E710220020082600209423002020
:100A600070B504464FF47A76412C254628BF4125BF
:100A700006FB05F000F0BEFE641BF5D170BD000062
:100A800007B50023024601210DF107008DF807305C
:100A9000FFF7C0FF20B19DF8070003B05DF804FB2D
:100AA0004FF0FF30F9E700000A4608B50421FFF7D0
:100AB000B1FF80F00100C0B2404208BD30B4054C27
:100AC0002368DD69044B0A46AC460146204630BC2B
:100AD000604700BF08260020A086010070B501F025
:100AE000A9F9094E094D30800024286833888342D3
:100AF00008D901F099F92B6804440133B4F5404F4B
:100B00002B60F2D370BD00BF962300206823002025
:100B100001F03EBA00F1006000F540400068704707
:100B200000F10060920000F5404001F0C9B90000FA
:100B3000054B1A68054B1B889B1A834202D9104447
:100B400001F072B90020704768230020962300202E
:100B500038B5084D044629B128682044BDE838401E
:100B600001F082B92868204401F066F90028F3D02A
:100B700038BD00BF6823002010F003030AD1B0F590
:100B8000047F05D200F10050A0F51040D0F80038E5
:100B9000184670470023FBE700F10050A0F5104015
:100BA000D0F8100A70470000064991F8243033B19C
:100BB0000023086A81F824300822FFF7B1BF012022
:100BC000704700BF6C230020014B1868704700BFBE
:100BD000002004E070B5194B1D68194B0138C5F3AE
:100BE0000B0408442D0C04221E88A6420BD15C681D
:100BF0000A46013C824213460FD214F9016F4EB1EE
:100C000002F8016BF6E7013A03F10803ECD18142E7
:100C10000B4602D22C2203F8012B0A4A052416881F
:100C2000AE4204D1984284BF967803F8016B013C30
:100C300002F10402F3D1581A70BD00BF002004E095
:100C40006C340008583400087047000070470000FA
:100C50007047000010B50023934203D0CC5CC4540D
:100C60000133F9E710BD000010B5013810F9013F5C
:100C70003BB191F900409C4203D11AB10131013AD4
:100C8000F4E71AB191F90020981A10BD1046FCE75C
:100C900003460246D01A12F9011B0029FAD1704707
:100CA00002440346934202D003F8011BFAE770475F
:100CB0002DE9F8431F4D144695F824200746884631
:100CC00052BBDFF870909CB395F824302BB92022EA
:100CD000FF2148462F62FFF7E3FF95F82400C0F19B
:100CE0000802A24228BF2246D6B24146920005EB36
:100CF0008000FFF7AFFF95F82430A41B1E44F6B226
:100D0000082E17449044E4B285F82460DBD1FFF745
:100D10004BFF0028D7D108E02B6A03EB8203834204
:100D2000CFD0FFF741FF0028CBD10020BDE8F883EA
:100D30000120FBE76C230020024B1A78024B1A704B
:100D4000704700BF942300201022002010B5104CE3
:100D5000104800F0B5F821460E4800F0DDF8246890
:100D6000626DD2F8043843F00203C2F804384FF43D
:100D70007A70FFF775FE0849204600F0D3F9626DDE
:100D8000D2F8043823F00203C2F8043810BD00BFC3
:100D9000383500080826002040350008704700005C
:100DA00030B5094D0A4491420DD011F8013B58402D
:100DB000082340F30004013B2C4013F0FF0384EAB6
:100DC0005000F6D1EFE730BD2083B8ED02684368EC
:100DD0001143016003B118477047000013B5446B1D
:100DE000D4F894341A681178042915D1217C022989
:100DF00012D11979128901238B4013420CD101A918
:100E000004F14C0001F0F8FED4F89444019B2179E0
:100E10000246206800F0D0F902B010BD143001F095
:100E20007BBE00004FF0FF33143001F075BE0000B0
:100E30004C3001F04DBF00004FF0FF334C3001F05B
:100E400047BF0000143001F049BE00004FF0FF31F1
:100E5000143001F043BE00004C3001F019BF000017
:100E60004FF0FF324C3001F013BF000000207047FC
:100E700010B5D0F894341A6811780429044617D1B3
:100E8000017C022914D15979528901238B401342E4
:100E90000ED1143001F0DCFD024648B1D4F8944480
:100EA0004FF4807361792068BDE8104000F072B99A
:100EB00010BD0000406BFFF7DBBF00007047000073
:100EC0007FB5124B036000234360C0E90233012564
:100ED00002260F4B057404460290019300F1840230
:100EE000294600964FF48073143001F08DFD094BB4
:100EF0000294CDE9006304F523724FF48073294610
:100F000004F14C0001F054FE04B070BD8C340008B4
:100F1000B50E0008DD0D00080B68302282F3118841
:100F20000A7903EB820290614A79093243F8220080
:100F30008A7912B103EB820398610223C0F89414FA
:100F40000374002080F311887047000038B5037FD8
:100F5000044613B190F85430ABB9201D012502218D
:100F6000FFF734FF04F1140025776FF0010100F062
:100F700069FC84F8545004F14C006FF00101BDE8A5
:100F8000384000F05FBC38BD10B501210446043084
:100F9000FFF71CFF0023237784F8543010BD0000B6
:100FA00038B504460025143001F046FD04F14C002C
:100FB000257701F015FE201D84F854500121FFF71C
:100FC00005FF2046BDE83840FFF752BF90F8443097
:100FD00003F06003202B07D190F84520212A4FF021
:100FE000000303D81F2A06D800207047222AFBD10D
:100FF000C0E90E3303E0034A82630722C26303643D
:10100000012070471122002037B5D0F894341A68B7
:101010001178042904461AD1017C022917D11979C3
:10102000128901238B40134211D100F14C0528464F
:1010300001F096FE58B101A9284601F0DDFDD4F873
:101040009444019B21790246206800F0B5F803B072
:1010500030BD0000F0B500EB810385B09E69044609
:101060000D46FEB1302383F3118804EB8507301D54
:101070000821FFF7ABFEFB685B691B6806F14C00BB
:101080001BB1019001F0C6FD019803A901F0B4FD68
:10109000024648B1039B2946204600F08DF8002304
:1010A00083F3118805B0F0BDFB685A691268002A05
:1010B000F5D01B8A013B1340F1D104F14402EAE769
:1010C000093138B550F82140DCB1302383F3118861
:1010D000D4F894241368527903EB8203DB689B698C
:1010E0005D6845B104216018FFF770FE294604F1E0
:1010F000140001F0B7FC2046FFF7BAFE002383F38B
:10110000118838BD7047000001F016B80123037044
:101110000023C0E90133C36183620362C362436297
:101120000363704738B50446302383F311880025E4
:10113000C0E90355C0E90555416001F00DF80223EF
:10114000237085F31188284638BD000070B500EB88
:10115000810305465069DA600E46144618B1102224
:101160000021FFF79DFDA06918B110220021FFF7B3
:1011700097FD31462846BDE8704001F0B7B8000041
:10118000826802F0011282600022C0E904228261BA
:1011900001F038B9F0B400EB81044789E468012517
:1011A000A4698D403D43458123600023A2606360B4
:1011B000F0BC01F053B90000F0B400EB81040789E2
:1011C000E468012564698D403D4305812360002367
:1011D000A2606360F0BC01F0CDB9000070B50223DD
:1011E000002504460370C0E90255C0E90455C564F2
:1011F000856180F8345001F015F863681B6823B1ED
:1012000029462046BDE87040184770BD0378052B7D
:1012100010B504460AD080F85030052303704368A7
:101220001B680BB1042198470023A36010BD000088
:101230000178052906D190F85020436802701B6898
:1012400003B118477047000070B590F83430044679
:1012500013B1002380F8343004F14402204601F039
:10126000F3F863689B68B3B994F8443013F06005F1
:1012700035D00021204601F093FB0021204601F0EB
:1012800085FB63681B6813B1062120469847062337
:1012900084F8343070BD204698470028E4D0B4F874
:1012A0004A30E26B9A4288BFE36394F94430E56BBD
:1012B000002B4FF0300380F20381002D00F0F2800C
:1012C000092284F8342083F311880021D4E90E2305
:1012D0002046FFF771FF002383F31188DAE794F8C3
:1012E000452003F07F0343EA022340F20232934297
:1012F00000F0C58021D8B3F5807F48D00DD8012BF0
:101300003FD0022B00F09380002BB2D104F14C02AD
:10131000A2630222E2632364C1E7B3F5817F00F098
:101320009B80B3F5407FA4D194F84630012BA0D127
:10133000B4F84C3043F0020332E0B3F5006F4DD007
:1013400017D8B3F5A06F31D0A3F5C063012B90D8A7
:10135000636894F846205E6894F84710B4F8483003
:101360002046B047002884D04368A3630368E36342
:101370001AE0B3F5106F36D040F6024293427FF484
:1013800078AF5C4BA3630223E3630023C3E794F8C5
:101390004630012B7FF46DAFB4F84C3023F00203DC
:1013A000C4E90E55A4F84C30256478E7B4F844300D
:1013B000B3F5A06F0ED194F8463084F84E30204635
:1013C00000F088FF63681B6813B10121204698472D
:1013D000032323700023C4E90E339CE704F14F0379
:1013E000A3630123C3E72378042B10D1302383F3B5
:1013F00011882046FFF7C4FE85F311880321636836
:1014000084F84F5021701B680BB12046984794F820
:101410004630002BDED084F84F30042323706368FD
:101420001B68002BD6D0022120469847D2E794F8BB
:1014300048301D0603F00F0120460AD500F0F6FFE4
:10144000012804D002287FF414AF2B4B9AE72B4BD2
:1014500098E700F0DDFFF3E794F84630002B7FF4C7
:1014600008AF94F8483013F00F01B3D01A062046A5
:1014700002D501F0A9FAADE701F09CFAAAE794F8C9
:101480004630002B7FF4F5AE94F8483013F00F018E
:10149000A0D01B06204602D501F082FA9AE701F09F
:1014A00075FA97E7142284F8342083F311882B46C9
:1014B0002A4629462046FFF76DFE85F31188E9E6A6
:1014C0005DB1152284F8342083F311880021D4E91A
:1014D0000E232046FFF75EFEFDE60B2284F8342043
:1014E00083F311882B462A4629462046FFF764FEDF
:1014F000E3E700BFBC340008B4340008B834000887
:1015000038B590F834300446002B3ED0063BDAB2B2
:101510000F2A34D80F2B32D8DFE803F037313108E7
:10152000223231313131313131313737C56BB0F899
:101530004A309D4214D2C3681B8AB5FBF3F203FB09
:1015400012556DB9302383F311882B462A4629465C
:10155000FFF732FE85F311880A2384F834300EE059
:10156000142384F83430302383F3118800231A467F
:1015700019462046FFF70EFE002383F3118838BD7D
:10158000036C03B198470023E7E70021204601F0F0
:1015900007FA0021204601F0F9F963681B6813B1CE
:1015A0000621204698470623D7E7000010B590F89B
:1015B0003430142B044629D017D8062B05D001D877
:1015C0001BB110BD093B022BFBD80021204601F0C6
:1015D000E7F90021204601F0D9F963681B6813B1CF
:1015E000062120469847062319E0152BE9D10B2345
:1015F00080F83430302383F3118800231A461946CB
:10160000FFF7DAFD002383F31188DAE7C3689B69EB
:101610005B68002BD5D1036C03B19847002384F895
:101620003430CEE700230375826803691B6899682C
:101630009142FBD25A680360426010605860704764
:1016400000230375826803691B6899689142FBD87F
:101650005A680360426010605860704708B50846D9
:10166000302383F311880B7D032B05D0042B0DD081
:101670002BB983F3118808BD8B6900221A604FF0E3
:10168000FF338361FFF7CEFF0023F2E7D1E9003299
:1016900013605A60F3E70000FFF7C4BF054BD96839
:1016A0000875186802681A60536001220275D860D4
:1016B000FEF728BE9823002030B50C4BDD684B1C8C
:1016C00087B004460FD02B46094A684600F04EF911
:1016D0002046FFF7E3FF009B13B1684600F050F986
:1016E000A86907B030BDFFF7D9FFF9E798230020BC
:1016F0005D160008044B1A68DB6890689B68984286
:1017000094BF00200120704798230020084B10B59B
:101710001C68D86822681A60536001222275DC6058
:10172000FFF78EFF01462046BDE81040FEF7EABDF8
:101730009823002038B5074C0749084801230025A5
:101740002370656001F044FB0223237085F3118848
:1017500038BD00BF00260020C434000898230020B4
:1017600000F044B9034A516853685B1A9842FBD8A9
:10177000704700BF001000E08B60022308618B827D
:10178000084670478368A3F1840243F8142C026969
:1017900043F8442C426943F8402C094A43F8242C6E
:1017A000C26843F8182C022203F80C2C002203F81C
:1017B0000B2C044A43F8102CA3F12000704700BF03
:1017C0001D0300089823002008B5FFF7DBFFBDE8E4
:1017D0000840FFF761BF0000024BDB6898610F20F3
:1017E000FFF75CBF98230020302383F31188FFF7B5
:1017F000F3BF000008B50146302383F311880820A9
:10180000FFF75AFF002383F3118808BD064BDB68FE
:1018100039B1426818605A60136043600420FFF7D2
:101820004BBF4FF0FF307047982300200368984269
:1018300006D01A680260506099611846FFF72CBF05
:101840007047000038B504460D462068844200D138
:1018500038BD036823605C608561FFF71DFFF4E716
:1018600010B503689C68A2420CD85C688A600B6063
:101870004C602160596099688A1A9A604FF0FF3372
:10188000836010BD1B68121BECE700000A2938BFFB
:101890000A2170B504460D460A26601901F092FA35
:1018A00001F07EFA041BA54203D8751C2E4604469F
:1018B000F3E70A2E04D9BDE87040012001F0C8BA50
:1018C00070BD0000F8B5144B0D46D96103F110014D
:1018D00041600A2A1969826038BF0A2201604860A3
:1018E0001861A818144601F05FFA0A2701F058FAA7
:1018F000431BA342064606D37C1C281901F062FA5A
:1019000027463546F2E70A2F04D9BDE8F840012002
:1019100001F09EBAF8BD00BF98230020F8B5064636
:101920000D4601F03DFA0F4A134653F8107F9F42CF
:1019300006D12A4601463046BDE8F840FFF7C2BF4F
:10194000D169BB68441A2C1928BF2C46A34202D97E
:101950002946FFF79BFF224631460348BDE8F84081
:10196000FFF77EBF98230020A823002010B4C0E911
:10197000032300235DF8044B4361FFF7CFBF000052
:1019800010B5194C236998420DD0D0E90032816816
:1019900013605A609A680A449A60002303604FF00B
:1019A000FF33A36110BD2346026843F8102F536034
:1019B0000022026022699A4203D1BDE8104001F082
:1019C000FBB9936881680B44936001F0E9F92269DF
:1019D000E1699268441AA242E4D91144BDE810407A
:1019E000091AFFF753BF00BF982300202DE9F047E5
:1019F000DFF8BC8008F110072C4ED8F8105001F029
:101A0000CFF9D8F81C40AA68031B9A423ED8144468
:101A1000D5E900324FF00009C8F81C4013605A6045
:101A2000C5F80090D8F81030B34201D101F0C4F9E4
:101A300089F31188D5E9033128469847302383F389
:101A400011886B69002BD8D001F0AAF96A69A0EB64
:101A500004094A4582460DD2022001F0F9F900221C
:101A6000D8F81030B34208D151462846BDE8F047B7
:101A7000FFF728BF121A2244F2E712EB090938BF18
:101A80004A4629463846FFF7EBFEB5E7D8F810304E
:101A9000B34208D01444211AC8F81C00A960BDE85C
:101AA000F047FFF7F3BEBDE8F08700BFA823002092
:101AB0009823002000207047FEE7000070470000D8
:101AC0004FF0FF307047000002290CD0032904D0EA
:101AD0000129074818BF00207047032A05D8054888
:101AE00000EBC2007047044870470020704700BFF9
:101AF0009C350008202200205035000870B59AB0AF
:101B00000546084601A9144600F0C2F801A8FFF7EF
:101B1000BFF8431C5B00C5E9003400222370032397
:101B20006370C6B201AB02341046D1B28E4204F1EA
:101B3000020401D81AB070BD13F8011B04F8021C8E
:101B400004F8010C0132F0E708B5302383F3118863
:101B50000348FFF759FA002383F3118808BD00BF3B
:101B60000826002090F8443003F01F02012A07D114
:101B700090F845200B2A03D10023C0E90E3315E06D
:101B800003F06003202B08D1B0F848302BB990F84F
:101B90004520212A03D81F2A04D8FFF717BA222A82
:101BA000EBD0FAE7034A82630722C2630364012091
:101BB000704700BF1822002007B5052917D8DFE8B5
:101BC00001F0191603191920302383F31188104AE4
:101BD00001900121FFF7BAFA01980E4A0221FFF79E
:101BE000B5FA0D48FFF7DCF9002383F3118803B041
:101BF0005DF804FB302383F311880748FFF7A6F94B
:101C0000F2E7302383F311880348FFF7BDF9EBE7D0
:101C1000F0340008143500080826002038B50C4DB3
:101C20000C4C0D492A4604F10800FFF767FF05F147
:101C3000CA0204F110000949FFF760FF05F5CA72F6
:101C400004F118000649BDE83840FFF757BF00BF50
:101C5000D02A002020220020D0340008DA340008E6
:101C6000E534000870B5044608460D46FFF710F845
:101C7000C6B22046013403780BB9184670BD32460F
:101C80002946FEF7F1FF0028F3D10120F6E7000016
:101C90002DE9F84F05460C46FEF7FAFF2B49C6B270
:101CA0002846FFF7DFFF08B10236F6B2284928467A
:101CB000FFF7D8FF08B11036F6B2632E0DD8DFF863
:101CC0008C80DFF88C90234FDFF890A0DFF890B085
:101CD0002E7846B92670BDE8F88F29462046BDE823
:101CE000F84F01F09BBB252E2BD1072241462846F9
:101CF000FEF7BAFF58B9DBF800302360DBF8043098
:101D000063609BF80830237207350934E0E7082246
:101D100049462846FEF7A8FF98B90F4BA21C197830
:101D200009090232C95D02F8041C13F8011B01F015
:101D30000F015345C95D02F8031CF0D11834083572
:101D4000C6E704F8016B0135C2E700BFBC350008E7
:101D5000E5340008CE350008107AFF1F1C7AFF1FFB
:101D6000C4350008BFF34F8F024AD368DB03FCD4AD
:101D7000704700BF003C024008B5094B1B7873B99F
:101D8000FFF7F0FF074B1A69002ABFBF064A5A60E7
:101D900002F188325A601A6822F480621A6008BD23
:101DA0002E2D0020003C02402301674508B50B4B57
:101DB0001B7893B9FFF7D6FF094B1A6942F000422E
:101DC0001A611A6842F480521A601A6822F480522A
:101DD0001A601A6842F480621A6008BD2E2D002035
:101DE000003C02400B28F0B516D80C4C0C49237867
:101DF0007BB90C4D0E460C234FF0006255F8047B66
:101E000046F8042B013B13F0FF033A44F6D10123BB
:101E1000237051F82000F0BD0020FCE7602D002069
:101E2000302D0020E0350008014B53F820007047AA
:101E3000E03500080C2070470B2810B5044601D986
:101E4000002010BDFFF7CEFF064B53F82430184496
:101E5000C21A0BB90120F4E712680132F0D1043B39
:101E6000F6E700BFE03500080B2810B5044621D87E
:101E7000FFF778FFFFF780FF0F4AF323D360C3001B
:101E8000DBB243F4007343F002031361136943F4BC
:101E900080331361FFF766FFFFF7A4FF074B53F88A
:101EA000241000F0D9F8FFF781FF2046BDE810406C
:101EB000FFF7C2BF002010BD003C0240E035000823
:101EC000F8B512F00103144642D18218B2F1016F45
:101ED00057D82D4B1B6813F0010352D02B4DFFF741
:101EE0004BFFF323EB60FFF73DFF40F20127032C8C
:101EF00015D824F001046618244C401A40F201174A
:101F0000B142236900EB010524D123F001032361D1
:101F1000FFF74CFF0120F8BD043C0430E7E78307DE
:101F2000E7D12B6923F440732B612B693B432B6171
:101F300051F8046B0660BFF34F8FFFF713FF036880
:101F40009E42E9D02B6923F001032B61FFF72EFF9E
:101F50000020E0E723F44073236123693B432361BE
:101F60000B882B80BFF34F8FFFF7FCFE2D8831F8D5
:101F7000023BADB2AB42C3D0236923F0010323611E
:101F8000E4E71846C7E700BF00380240003C0240C3
:101F9000084908B50B7828B11BB9FFF7EDFE0123FE
:101FA0000B7008BD002BFCD0BDE808400870FFF79F
:101FB000FDBE00BF2E2D002010B50244064BD2B24C
:101FC000904200D110BD441C00B253F8200041F8EB
:101FD000040BE0B2F4E700BF502800400F4B30B5CF
:101FE0001C6F240407D41C6F44F400741C671C6F1E
:101FF00044F400441C670A4C236843F48073236054
:102000000244084BD2B2904200D130BD441C00B211
:1020100051F8045B43F82050E0B2F4E70038024086
:10202000007000405028004007B5012201A900209F
:10203000FFF7C2FF019803B05DF804FB13B5044637
:10204000FFF7F2FFA04205D0012201A90020019470
:10205000FFF7C4FF02B010BD70470000034B1A68C1
:102060001AB9034AD2F874281A607047642D002008
:102070000030024008B5FFF7F1FF024B1868C0F3CB
:10208000407008BD642D002070470000FEE700008E
:102090000A4B0B480B4A90420BD30B4BDA1C121A1B
:1020A000C11E22F003028B4238BF00220021FEF73E
:1020B000F7BD53F8041B40F8041BECE78837000811
:1020C000602E0020602E0020602E002070B5D0E928
:1020D00015439E6800224FF0FF3504EB4213510177
:1020E000D3F800090028BEBFD3F8000940F08040B3
:1020F000C3F80009D3F8000B0028BEBFD3F8000BCB
:1021000040F08040C3F8000B013263189642C3F8D8
:102110000859C3F8085BE0D24FF00113C4F81C382B
:1021200070BD0000890141F02001016103699B0637
:10213000FCD41220FFF716BB10B5054C2046FEF765
:10214000E5FF4FF0A0436365024BA36510BD00BFE0
:10215000682D00203436000870B50378012B054641
:1021600050D12A4B446D98421BD1294B5A6B42F0F7
:1021700080025A635A6D42F080025A655A6D5A695C
:1021800042F080025A615A6922F080025A610E219F
:1021900043205B6900F022FC1E4BE3601E4BC4F839
:1021A00000380023C4F8003EC02323606E6D4FF456
:1021B0000413A3633369002BFCDA012333610C2081
:1021C000FFF7D0FA3369DB07FCD41220FFF7CAFA15
:1021D0003369002BFCDA0026A6602846FFF776FF5D
:1021E0006B68C4F81068DB68C4F81468C4F81C682D
:1021F0004BB90A4BA3614FF0FF336361A36843F00F
:102200000103A36070BD064BF4E700BF682D0020FA
:10221000003802404014004003002002003C30C05F
:10222000083C30C0F8B5446D054600212046FFF754
:1022300079FFA96D00234FF001128F68C4F834387C
:102240004FF00066C4F81C284FF0FF3004EB431237
:1022500001339F42C2F80069C2F8006BC2F8080956
:10226000C2F8080BF2D20B686A6DEB65636210234B
:102270001361166916F01006FBD11220FFF772FAEF
:10228000D4F8003823F4FE63C4F80038A36943F49B
:10229000402343F01003A3610923C4F81038C4F8A5
:1022A00014380A4BEB604FF0C043C4F8103B084BA6
:1022B000C4F8003BC4F81069C4F80039EB6D03F1B1
:1022C000100243F48013EA65A362F8BD10360008DB
:1022D00040800010426D90F84E10D2F8003823F480
:1022E000FE6343EA0113C2F8003870472DE9F84352
:1022F00000EB8103456DDA68166806F00306731E6D
:10230000022B05EB41130C4680460FFA81F94FEA88
:1023100041104FF00001C3F8101B4FF0010104F110
:10232000100398BFB60401FA03F391698EBF334ED0
:1023300006F1805606F5004600293AD0578A04F186
:102340005801490137436F50D5F81C180B43C5F8A5
:102350001C382B180021C3F8101953690127611E7E
:10236000A7409BB3138A928B9B08012A88BF5343D3
:10237000D8F85C20981842EA034301F1400205EBCB
:102380008202C8F85C00214653602846FFF7CAFE67
:1023900008EB8900C3681B8A43EA8453483464010C
:1023A0001E432E51D5F81C381F43C5F81C78BDE8D4
:1023B000F88305EB4917D7F8001B21F40041C7F853
:1023C000001BD5F81C1821EA0303C0E704F13F0302
:1023D00005EB83030A4A5A6028462146FFF7A2FE0E
:1023E00005EB4910D0F8003923F40043C0F8003958
:1023F000D5F81C3823EA0707D7E700BF0080001094
:1024000000040002826D1268C265FFF75FBE000023
:102410005831436D49015B5813F4004004D013F464
:10242000001F0CBF02200120704700004831436D9F
:1024300049015B5813F4004004D013F4001F0CBF93
:10244000022001207047000000EB8101CB68196A6F
:102450000B6813604B6853607047000000EB81030A
:1024600030B5DD68AA691368D36019B9402B84BF01
:10247000402313606B8A1468426D1C44013CB4FB1A
:10248000F3F46343033323F0030302EB411043EA05
:10249000C44343F0C043C0F8103B2B6803F0030370
:1024A000012B09B20ED1D2F8083802EB411013F417
:1024B000807FD0F8003B14BF43F0805343F00053BB
:1024C000C0F8003B02EB4112D2F8003B43F004435A
:1024D000C2F8003B30BD00002DE9F041244D6E6D87
:1024E00006EB40130446D3F8087BC3F8087B380793
:1024F0000AD5D6F81438190706D505EB840321460A
:10250000DB6828465B689847FA071FD5D6F8143869
:10251000DB071BD505EB8403D968CCB98B69488AE6
:102520005A68B2FBF0F600FB16228AB91868DA681E
:1025300090420DD2121AC3E90024302383F311888C
:102540000B482146FFF78AFF84F31188BDE8F0812C
:10255000012303FA04F26B8923EA02036B81CB683F
:10256000002BF3D021460248BDE8F041184700BFD8
:10257000682D002000EB810370B5DD68436D6C6948
:102580002668E6604A0156BB1A444FF40020C2F8A0
:1025900010092A6802F00302012A0AB20ED1D3F808
:1025A000080803EB421410F4807FD4F8000914BF2C
:1025B00040F0805040F00050C4F8000903EB421294
:1025C000D2F8000940F00440C2F80009D3F83408FA
:1025D000012202FA01F10143C3F8341870BD19B9A0
:1025E000402E84BF4020206020682E8A8419013C40
:1025F000B4FBF6F440EAC44040F000501A44C6E789
:102600002DE9F8433B4D6E6D06EB40130446D3F8BD
:102610000889C3F8088918F0010F4FEA40171AD04B
:10262000D6F81038DB0716D505EB8003D9684B695F
:102630001868DA68904230D2121A4FF000091A6016
:10264000C3F80490302383F3118821462846FFF70E
:1026500091FF89F3118818F0800F1CD0D6F8343818
:102660000126A640334216D005EB84036D6DD3F8E6
:102670000CC0DCF814200134E4B2D2F800E005EB21
:1026800004342F445168714515D3D5F8343823EA02
:102690000606C5F83468BDE8F883012303FA04F29E
:1026A0002B8923EA02032B818B68002BD3D0214690
:1026B00028469847CFE7BCF81000AEEB01038342F1
:1026C00028BF0346D7F8180980B2B3EB800FE2D8D1
:1026D0009068A0F1040959F8048FC4F80080A0EBB9
:1026E00009089844B8F1040FF5D818440B449060D9
:1026F0005360C7E7682D00202DE9F74FA24C656DA8
:102700006E69AB691E4016F480586E6107D0204692
:10271000FEF764FD03B0BDE8F04F00F047BC002EAB
:1027200012DAD5F8003E98489B071EBFD5F8003E48
:1027300023F00303C5F8003ED5F8043823F0010365
:10274000C5F80438FEF774FD370505D58E48FFF748
:10275000BDFC8D48FEF75AFDB0040CD5D5F80838FD
:1027600013F0060FEB6823F470530CBF43F41053BF
:1027700043F4A053EB6031071BD56368DB681BB9DA
:10278000AB6923F00803AB612378052B0CD1D5F896
:10279000003E7D489A071EBFD5F8003E23F0030394
:1027A000C5F8003EFEF744FD6368DB680BB1764870
:1027B0009847F30274D4B70227D5D4F85490DFF8C1
:1027C000C8B100274FF0010A09EB4712D2F8003BCD
:1027D00003F44023B3F5802F11D1D2F8003B002B36
:1027E0000DDA62890AFA07F322EA0303638104EB34
:1027F0008703DB68DB6813B1394658469847A36DF9
:1028000001379B68FFB29F42DED9F00617D5676D8E
:102810003A6AC2F30A1002F00F0302F4F012B2F5A2
:10282000802F00F08580B2F5402F08D104EB8303A0
:102830000022DB681B6A07F5805790426AD130039B
:10284000D5F8184813D5E10302D50020FFF744FE60
:10285000A20302D50120FFF73FFE630302D5022049
:10286000FFF73AFE270302D50320FFF735FE750375
:102870007FF550AFE00702D50020FFF7C1FEA107AA
:1028800002D50120FFF7BCFE620702D50220FFF748
:10289000B7FE23077FF53EAF0320FFF7B1FE39E710
:1028A000636DDFF8E4A0019300274FF00109A36DE9
:1028B0009B685FFA87FB9B453FF67DAF019B03EB6F
:1028C0004B13D3F8001901F44021B1F5802F1FD12B
:1028D000D3F8001900291BDAD3F8001941F0904110
:1028E000C3F80019D3F800190029FBDB5946606DC5
:1028F000FFF718FC218909FA0BF321EA030323816E
:1029000004EB8B03DB689B6813B15946504698472C
:102910000137CCE7910708BFD7F80080072A98BF96
:1029200003F8018B02F1010298BF4FEA182884E7EF
:10293000023304EB830207F580575268D2F818C0BF
:10294000DCF80820DCE9001CA1EB0C0C002188421B
:102950000AD104EB830463689B699A6802449A6015
:102960005A6802445A606AE711F0030F08BFD7F8AB
:1029700000808C4588BF02F8018B01F1010188BFFE
:102980004FEA1828E3E700BF682D0020436D03EBF2
:102990004111D1F8003B43F40013C1F8003B7047EC
:1029A000436D03EB4111D1F8003943F40013C1F832
:1029B00000397047436D03EB4111D1F8003B23F41C
:1029C0000013C1F8003B7047436D03EB4111D1F890
:1029D000003923F40013C1F80039704700F1604357
:1029E00003F561430901C9B283F80013012200F025
:1029F0001F039A4043099B0003F1604303F56143C1
:102A0000C3F880211A60704730B5039C017204330B
:102A100004FB0325C0E90653049B03630021059BC7
:102A2000C160C0E90000C0E90422C0E90842C0E971
:102A30000A11436330BD0000416A0022C0E904115D
:102A4000C0E90A22C2606FF00101FEF7FBBE000080
:102A5000D0E90432934201D1C2680AB9181D704707
:102A60000020704703691960C2680132C260C26900
:102A7000134482690361934224BF436A03610021C6
:102A8000FEF7D4BE38B504460D46E3683BB1626933
:102A9000131D1268A3621344E362002007E0237A47
:102AA00033B929462046FEF7B1FE0028EDDA38BDDD
:102AB0006FF00100FBE70000C368C269013BC3601F
:102AC0004369134482694361934224BF436A43616B
:102AD00000238362036B03B11847704770B530233E
:102AE000044683F31188866A3EB9FFF7CBFF05469B
:102AF00018B186F31188284670BDA36AE26A13F8FC
:102B0000015BA362934202D32046FFF7D5FF002367
:102B100083F31188EFE700002DE9F84F04460E46D5
:102B2000174698464FF0300989F311880025AA46C8
:102B3000D4F828B0BBF1000F09D141462046FFF779
:102B4000A1FF20B18BF311882846BDE8F88FD4E9A6
:102B50000A12A7EB050B521A934528BF9346BBF107
:102B6000400F1BD9334601F1400251F8040B43F8E2
:102B7000040B9142F9D1A36A40334036A362403539
:102B8000D4E90A239A4202D32046FFF795FF8AF33D
:102B90001188BD42D8D289F31188C9E730465A4618
:102BA000FEF758F8A36A5B445E44A3625D44E7E71E
:102BB00010B5029C0172043303FB0421C0E9061323
:102BC0000023C0E90A33039B0363049BC460C0E98C
:102BD0000000C0E90422C0E90842436310BD0000C0
:102BE000026AC260426AC0E904220022C0E90A22E5
:102BF0006FF00101FEF726BED0E904239A4201D10D
:102C0000C26822B9184650F8043B0B607047002395
:102C10001846FAE7C368C2690133C36043691344C5
:102C200082694361934224BF436A43610021FEF7F6
:102C3000FDBD000038B504460D46E3683BB123698D
:102C40001A1DA262E2691344E362002007E0237ABE
:102C500033B929462046FEF7D9FD0028EDDA38BD04
:102C60006FF00100FBE7000003691960C268013AD8
:102C7000C260C269134482690361934224BF436AFC
:102C8000036100238362036B03B1184770470000A0
:102C900070B530230D460446114683F31188866AC9
:102CA0002EB9FFF7C7FF10B186F3118870BDA36A74
:102CB0001D70A36AE26A01339342A36204D3E169FF
:102CC00020460439FFF7D0FF002080F31188EDE79C
:102CD0002DE9F84F04460D46904699464FF0300ACC
:102CE0008AF311880026B346A76A4FB949462046A1
:102CF000FFF7A0FF20B187F311883046BDE8F88FB9
:102D0000D4E90A073A1AA8EB0607974228BF1746E4
:102D1000402F1BD905F1400355F8042B40F8042B34
:102D20009D42F9D1A36A4033A3624036D4E90A2315
:102D30009A4204D3E16920460439FFF795FF8BF3EB
:102D400011884645D9D28AF31188CDE729463A46FB
:102D5000FDF780FFA36A3B443D44A3623E44E5E7A0
:102D6000D0E904239A4217D1C3689BB1836A8BB11F
:102D7000043B9B1A0ED01360C368013BC360C36958
:102D80001A44836902619A4224BF436A03610023A3
:102D900083620123184670470023FBE700F030B937
:102DA0004FF08043586A70474FF0804300225863C9
:102DB0001A610222DA6070474FF080430022DA6025
:102DC000704700004FF0804358637047FEE70000F3
:102DD00070B51B4B01630025044686B058608562C0
:102DE0000E4600F0BFF804F11003C4E904334FF0BD
:102DF000FF33C4E90635C4E90044A560E562FFF786
:102E0000CFFF2B460246C4E9082304F134010D4AE2
:102E1000256580232046FEF7AFFC0123E0600A4AC7
:102E20000375009272680192B268CDE90223074BE4
:102E30006846CDE90435FEF7C7FC06B070BD00BF9B
:102E4000002600204036000845360008CD2D000839
:102E5000024AD36A1843D062704700BF982300200B
:102E60004B6843608B688360CB68C3600B694361C8
:102E70004B6903628B6943620B6803607047000013
:102E800008B5264B26481A6940F2FF110A431A6119
:102E90001A6922F4FF7222F001021A611A691A6B90
:102EA0000A431A631A6D0A431A651E4A1B6D1146BE
:102EB000FFF7D6FF02F11C0100F58060FFF7D0FF9D
:102EC00002F1380100F58060FFF7CAFF02F15401FA
:102ED00000F58060FFF7C4FF02F1700100F580602B
:102EE000FFF7BEFF02F18C0100F58060FFF7B8FF2D
:102EF00002F1A80100F58060FFF7B2FF02F1C40102
:102F000000F58060FFF7ACFF02F1E00100F58060A2
:102F1000FFF7A6FFBDE8084000F0EEB80038024019
:102F2000000002404C36000808B500F059FAFEF7E0
:102F300001FCFFF793F8BDE80840FEF76FBE000004
:102F400070470000EFF3098305494A6B22F0010244
:102F50004A63683383F30988002383F31188704739
:102F600000EF00E0302080F3118862B60C4B0D4A70
:102F7000D96821F4E0610904090C0A43DA60D3F846
:102F8000FC20094942F08072C3F8FC200A6842F034
:102F900001020A602022DA7783F82200704700BF1E
:102FA00000ED00E00003FA05001000E010B530234A
:102FB00083F311880E4B5B6813F4006314D0F1EEB9
:102FC000103AEFF30984683C4FF08073E361094BDA
:102FD000DB6B236684F30988FEF78CFB10B1064B8C
:102FE000A36110BD054BFBE783F31188F9E700BF30
:102FF00000ED00E000EF00E02F03000832030008BE
:103000000F4B1A6C42F001021A641A6E42F0010270
:103010001A660C4A1B6E936843F0010393604FF0ED
:10302000804353229A624FF0FF32DA6200229A61A3
:103030005A63DA605A6001225A611A60704700BF11
:1030400000380240002004E04FF0804208B51169CA
:10305000D3680B40D9B2C9439B07116107D5302310
:1030600083F31188FEF77CFB002383F3118808BDEE
:103070001F4B1A696FEAC2526FEAD2521A611A697B
:10308000C2F308021A614FF0FF301A695A69586199
:1030900000215A6959615A691A6A62F080521A62AB
:1030A0001A6A02F080521A621A6A5A6A58625A6A96
:1030B00059625A6A1A6C42F080521A641A6E42F0CF
:1030C00080521A661A6E0B4A106840F480701060C5
:1030D000186F00F44070B0F5007F1EBF4FF48030D1
:1030E00018671967536823F40073536000F054B9EC
:1030F0000038024000700040334B4FF080521A6499
:10310000324A4FF4404111601A6842F001021A60DD
:103110001A689107FCD59A6822F003029A602A4B3C
:103120009A6812F00C02FBD1196801F0F9011960DC
:103130009A601A6842F480321A601A689203FCD5C9
:103140005A6F42F001025A671F4B5A6F9007FCD525
:103150001F4A5A601A6842F080721A601B4A53680C
:103160005904FCD5184B1A689201FCD5194A9A608B
:10317000194B1A68194B9A42194B21D1194A1168F7
:10318000194A91421CD140F205121A60144A136880
:1031900003F00F03052BFAD10B4B9A6842F00202A1
:1031A0009A609A6802F00C02082AFAD15A6C42F42A
:1031B00080425A645A6E42F480425A665B6E70478F
:1031C00040F20572E1E700BF0038024000700040A5
:1031D0001054400700948838002004E01164002057
:1031E000003C024000ED00E041C20F41074A08B533
:1031F000536903F00103536123B1054A13680BB10E
:1032000050689847BDE80840FFF7D0BE003C014039
:10321000E02D0020074A08B5536903F0020353610B
:1032200023B1054A93680BB1D0689847BDE80840C0
:10323000FFF7BCBE003C0140E02D0020074A08B566
:10324000536903F00403536123B1054A13690BB1B9
:1032500050699847BDE80840FFF7A8BE003C014010
:10326000E02D0020074A08B5536903F008035361B5
:1032700023B1054A93690BB1D0699847BDE808406E
:10328000FFF794BE003C0140E02D0020074A08B53E
:10329000536903F01003536123B1054A136A0BB15C
:1032A000506A9847BDE80840FFF780BE003C0140E7
:1032B000E02D0020164B10B55C6904F478725A6159
:1032C000A30604D5134A936A0BB1D06A98476006E7
:1032D00004D5104A136B0BB1506B9847210604D5E7
:1032E0000C4A936B0BB1D06B9847E20504D5094AA1
:1032F000136C0BB1506C9847A30504D5054A936C29
:103300000BB1D06C9847BDE81040FFF74FBE00BF2F
:10331000003C0140E02D0020194B10B55C6904F41D
:103320007C425A61620504D5164A136D0BB1506D8B
:103330009847230504D5134A936D0BB1D06D984778
:10334000E00404D50F4A136E0BB1506E9847A104E8
:1033500004D50C4A936E0BB1D06E9847620404D525
:10336000084A136F0BB1506F9847230404D5054AE0
:10337000936F0BB1D06F9847BDE81040FFF716BEB2
:10338000003C0140E02D002008B5FFF75DFEBDE8E0
:103390000840FFF70BBE0000062108B50846FFF7FE
:1033A0001DFB06210720FFF719FB06210820FFF768
:1033B00015FB06210920FFF711FB06210A20FFF764
:1033C0000DFB06211720FFF709FB06212820FFF738
:1033D00005FBBDE8084007211C20FFF7FFBA0000ED
:1033E00008B5FFF745FE00F00BF8FDF78DFEFDF781
:1033F00065FDFFF7A5FDBDE80840FFF7CFBC000065
:103400000023054A19460133102BC2E9001102F1CD
:103410000802F8D1704700BFE02D0020034611F8E4
:10342000012B03F8012B002AF9D1704753544D3377
:1034300032463F3F3F0053544D33324634307800DC
:1034400053544D3332463432780053544D33324660
:103450003434365858000000012033000010410079
:1034600001105A000310590007103100000000003D
:103470002C3400081304000036340008190400003E
:1034800040340008210400004A3400080000000015
:10349000390E0008250E0008610E00084D0E0008C8
:1034A000590E0008450E0008310E00081D0E0008D8
:1034B0006D0E000800000000010000000000000088
:1034C00063300000C0340008F023002000260020F4
:1034D0004172647550696C6F740025424F415244CB
:1034E000252D424C002553455249414C25000000F2
:1034F000020000000000000055100008C110000884
:1035000040004000A02A0020B02A00200200000055
:10351000000000000300000000000000051100088A
:103520000000000010000000C02A00200000000081
:103530000100000000000000682D002001010200D1
:10354000B91B0008C91A0008651B0008491B0008C0
:10355000430000005835000809024300020100C082
:1035600032090400000102020100052400100105D7
:10357000240100010424020205240600010705823B
:10358000030800FF09040100020A0000000705010A
:103590000240000007058102400000001200000008
:1035A000A435000812011001020000400912415721
:1035B00000020102030100000403090425424F41F7
:1035C000524425005361706F44726F6E6500303154
:1035D00032333435363738394142434445460000AA
:1035E00000400000004000000040000000400000DB
:1035F00000000100000002000000020000000200C4
:1036000000000200000002000000020000000200B2
:10361000000000004912000801150008AD1500085F
:1036200040004000C82D0020C82D002001000000EF
:10363000D82D0020800000004001000003000000A1
:103640006D61696E0069646C6500000000018002B4
:1036500000000000AAAAAAAA00010000FFFF0000C3
:103660000000000000A00A000000000000000000B0
:10367000AAAAAAAA00000000FFFF000000000000A4
:10368000000000000000000000000000AAAAAAAA92
:1036900000000000FFFF000000000000000000002C
:1036A0000000000000000000AAAAAAAA0000000072
:1036B000FFFF00000000000000000000000000000C
:1036C00000000000AAAAAAAA00000000FFFF000054
:1036D00000000000000000000000000000000000EA
:1036E000AAAAAAAA00000000FFFF00000000000034
:1036F000000000000000000000000000AAAAAAAA22
:1037000000000000FFFF00000000000000000000BB
:1037100000000000000000000A000000000000009F
:103720000300000000000000000000000000000096
:103730000000000000000000000000000000000089
:103740000000000000000000030000000000000076
:1037500000400F0000000000FF009600000000087D
:10376000009600000000080004000000B8350008C2
:103770000000000000000000000000000000000049
:08378000000000000000000041
:00000001FF
